:020000040800F2
:1000000088060020C1010008C9010008CB010008D2
:10001000CD010008CF010008D10100080000000058
:10002000000000000000000000000000D3010008F4
:10003000D501000800000000D7010008690400088D
:10004000DB010008DB010008DB010008DB01000820
:10005000DB010008DB010008DB010008DB01000810
:10006000DB010008DB010008DB010008DB01000800
:10007000DB010008DB010008DB010008DB010008F0
:10008000DB010008DB010008DB010008DB010008E0
:10009000DB010008DB010008DB010008DB010008D0
:1000A000DB010008DB010008DB010008DB010008C0
:1000B000DB010008DB010008DB010008DB010008B0
:1000C000DB010008DB010008DB010008DB010008A0
:1000D000DB010008DB010008DB010008DB01000890
:1000E000DB010008DB010008DB010008DB01000880
:1000F000DB01000800000000DB010008DB01000854
:100100000000000000000000DB010008DB01000827
:10011000DB010008DB010008DB010008DB0100084F
:10012000DB01000800F002F800F03AF80AA090E8BD
:10013000000C82448344AAF10107DA4501D100F0A2
:100140002FF8AFF2090EBAE80F0013F0010F18BF35
:10015000FB1A43F001031847240500004405000082
:10016000103A24BF78C878C1FAD8520724BF30C8E3
:1001700030C144BF04680C607047000000230024B5
:1001800000250026103A28BF78C1FBD8520728BFA7
:1001900030C148BF0B6070471FB51FBD10B510BD03
:1001A00000F031F81146FFF7F7FF00F0A9F900F071
:1001B0004FF803B4FFF7F2FF03BC00F057F800005C
:1001C0000948804709480047FEE7FEE7FEE7FEE7EB
:1001D000FEE7FEE7FEE7FEE7FEE7FEE70448054927
:1001E000054A064B704700009904000825010008E5
:1001F0008800002088060020880200208802002055
:10020000704770477047754600F02CF8AE46050001
:100210006946534620F00700854618B020B5FFF721
:10022000DDFFBDE820404FF000064FF000074FF023
:1002300000084FF0000B21F00701AC46ACE8C00904
:10024000ACE8C009ACE8C009ACE8C0098D4670470D
:1002500010B50446AFF300802046BDE81040FFF71C
:10026000A8BF00000048704728000020014918205E
:10027000ABBEFEE7260002007047F0B502460B4613
:10028000002100240025002000BF35E0012606FAE9
:1002900001F41E6806EA0405A5422CD110684F003F
:1002A0000326BE40B0431E794F00BE40304310606D
:1002B0001E79012E02D01E79022E12D190684F00B5
:1002C0000326BE40B0435E794F00BE40304390608D
:1002D000908801268E40B0439E798E40B6B230435E
:1002E0009080D0684F000326BE40B043DE794F00B7
:1002F000BE403043D060491C1029C7D3F0BD4183B4
:1003000070470183704700001CB50121022000F0F6
:1003100013F8F020009001208DF804008DF80500FE
:1003200000208DF806008DF8070069460148FFF7A8
:10033000A4FF1CBD0004024029B1064A1268024312
:10034000044B1A6004E0034A12688243014B1A60AE
:10035000704700001C3802400CB50020019000904E
:100360003E48006840F480303C49086000BF3B488C
:10037000006800F4003000900198401C0190009843
:1003800018B90198B0F5A04FF1D13448006800F4D5
:10039000003010B10120009001E000200090009892
:1003A000012859D12E48006840F004002C4908600B
:1003B0000846006840F0020008600846006840F007
:1003C0000100086025482430006840F0805023492F
:1003D00024310860C8142349086000BF21484068E0
:1003E00000F010000028F9D11C48083000681B49B3
:1003F0000831086008460068086008460068086020
:100400000846006820F47D0008600846006840F453
:10041000110008601148006840F080700F490860C2
:1004200000BF0E48006800F000700028F9D00B48AB
:100430000830006820F003000849083108600846C9
:10044000006840F00300086000BF044808300068FE
:1004500000F00C000C28F8D10CBD00000038024060
:10046000003C02400070004009480088002804DD7C
:1004700007480088401E0649088006480088002872
:1004800004DD04480088401E0249088070470000CF
:100490001E0000202200002010B51548006840F41E
:1004A00080701349086012480830006811490840FC
:1004B0000F49083108600E4800680F4908400C4990
:1004C00008600846006820F480200860084808306A
:1004D000006820F47D000649083108600020091DED
:1004E0000860FFF739FF4FF000600449086010BD55
:1004F000003802400CC0FF88FEFFFEEE08ED00E071
:10050000FFF702FF564800684FF47A72B0FBF2F131
:10051000481EB0F1807F00D31BE0481E4FF0E02260
:10052000506150170F22002807DA13071D0E4D4B9C
:1005300000F00F04241F1D5503E013071C0E4A4B47
:100540001C5400BF00204FF0E02290610720106192
:1005500000BF0A20454908800020454908707EE018
:1005600043480078D8B943480078012809D10A20C7
:100570003E49088000203F49087080213E48FFF72F
:10058000C0FE3A480088002869D180213A48FFF728
:10059000B6FE012036490870364908705FE03448DD
:1005A000007801281CD133480078012809D10A209D
:1005B0002E49088000202F49087040212E48FFF75F
:1005C000A0FE2A480088002849D140212A48FFF788
:1005D00096FE0320264908700120264908703EE057
:1005E0002348007803281BD122480078012809D12C
:1005F0000A201E49088000201E49087010211E484C
:10060000FFF77FFE1948008848BB10211A48FFF702
:1006100076FE0220164908700120164908701EE077
:100620001348007802281AD112480078012809D10D
:100630000A200E49088000200E49087020210E482B
:10064000FFF75FFE0948008848B920210A48FFF7F4
:1006500056FE0020064908700120064908707FE711
:100660000000002018ED00E000E400E0220000207F
:100670002000002024000020000402409C06000806
:10068000000000202800000060010008C4060008E7
:1006900028000020600600007C0100080048E801F6
:1006A000030406080C1018203000000000000000B1
:1006B0000001020304060708090000000000000012
:0406C0000000000036
:04000005080001C12D
:00000001FF
