:020000040800F2
:1000000060060020A5010008AD010008AF0100084E
:10001000B1010008B3010008B501000800000000AC
:10002000000000000000000000000000B701000810
:10003000B901000800000000BB010008BD01000874
:10004000BF010008BF010008BF010008BF01000890
:10005000BF010008BF010008BF010008BF01000880
:10006000BF010008BF010008BF010008BF01000870
:10007000BF010008BF010008BF010008BF01000860
:10008000BF010008BF010008BF010008BF01000850
:10009000BF010008BF010008BF010008BF01000840
:1000A000BF010008BF010008BF010008BF01000830
:1000B000BF010008BF010008BF010008BF01000820
:1000C000BF010008BF010008BF010008BF01000810
:1000D000BF010008BF010008BF010008BF01000800
:1000E000BF010008BF010008BF010008BF010008F0
:1000F000BF01000800000000BF010008BF010008A8
:100100000000000000000000BF010008BF0100085F
:10011000BF010008BF010008BF010008BF010008BF
:10012000BF01000800F002F800F02CF80AA090E8E7
:10013000000C82448344AAF10107DA4501D100F0A2
:1001400021F8AFF2090EBAE80F0013F0010F18BF43
:10015000FB1A43F001031847E0020000F002000020
:100160000023002400250026103A28BF78C1FBD8C0
:10017000520728BF30C148BF0B6070471FB51FBD75
:1001800010B510BD00F031F81146FFF7F7FF00F091
:1001900023F900F04FF803B4FFF7F2FF03BC00F0BF
:1001A00057F800000948804709480047FEE7FEE786
:1001B000FEE7FEE7FEE7FEE7FEE7FEE7FEE7FEE717
:1001C00004480549054A064B7047000071030008C2
:1001D0002501000860000020600600206002002069
:1001E00060020020704770477047754600F02CF899
:1001F000AE4605006946534620F00700854618B014
:1002000020B5FFF7DDFFBDE820404FF000064FF0BE
:1002100000074FF000084FF0000B21F00701AC463B
:10022000ACE8C009ACE8C009ACE8C009ACE8C0095A
:100230008D46704710B50446AFF300802046BDE8F8
:100240001040FFF7A8BF00000048704700000020E2
:1002500001491820ABBEFEE72600020070470000EF
:100260000CB50020019000903E48006840F48030BA
:100270003C49086000BF3B48006800F40030009033
:100280000198401C0190009818B90198B0F5A04F52
:10029000F1D13448006800F4003010B10120009022
:1002A00001E0002000900098012859D12E480068F4
:1002B00040F004002C4908600846006840F0020045
:1002C00008600846006840F00100086025482430B6
:1002D000006840F08050234924310860C814234945
:1002E000086000BF2148406800F010000028F9D1E4
:1002F0001C48083000681B4908310860084600683F
:1003000008600846006808600846006820F47D0020
:1003100008600846006840F4110008601148006851
:1003200040F080700F49086000BF0E48006800F080
:1003300000700028F9D00B480830006820F0030056
:100340000849083108600846006840F0030008606A
:1003500000BF04480830006800F00C000C28F8D1F9
:100360000CBD000000380240003C0240007000401C
:1003700010B51548006840F48070134908601248B1
:1003800008300068114908400F49083108600E48DC
:1003900000680F4908400C4908600846006820F4CE
:1003A0008020086008480830006820F47D00064975
:1003B000083108600020091D0860FFF751FF4FF069
:1003C00000600449086010BD003802400CC0FF887E
:1003D000FEFFFEEE08ED00E01448006840F0020069
:1003E000124908600846006840F0200008604FF499
:1003F000A0400F49086005200E49086000200C4904
:10040000091D08800B49091D088009490831086049
:1004100008490831086007E0C02005491431088008
:100420000320044914310880F6E700001C3802401C
:1004300000040240001402404804000800000020AC
:080440006006000060010008E5
:04000005080001A549
:00000001FF
