:020000040800F2
:1000000060060020A5010008AD010008AF0100084E
:10001000B1010008B3010008B501000800000000AC
:10002000000000000000000000000000B701000810
:10003000B901000800000000BB010008BD01000874
:10004000BF010008BF010008BF010008BF01000890
:10005000BF010008BF010008BF010008BF01000880
:10006000BF010008BF010008BF010008BF01000870
:10007000BF010008BF010008BF010008BF01000860
:10008000BF010008BF010008BF010008BF01000850
:10009000BF010008BF010008BF010008BF01000840
:1000A000BF010008BF010008BF010008BF01000830
:1000B000BF010008BF010008BF010008BF01000820
:1000C000BF010008BF010008BF010008BF01000810
:1000D000BF010008BF010008BF010008BF01000800
:1000E000BF010008BF010008BF010008BF010008F0
:1000F000BF01000800000000BF010008BF010008A8
:100100000000000000000000BF010008BF0100085F
:10011000BF010008BF010008BF010008BF010008BF
:10012000BF01000800F002F800F02CF80AA090E8E7
:10013000000C82448344AAF10107DA4501D100F0A2
:1001400021F8AFF2090EBAE80F0013F0010F18BF43
:10015000FB1A43F0010318478C0300009C030000C6
:100160000023002400250026103A28BF78C1FBD8C0
:10017000520728BF30C148BF0B6070471FB51FBD75
:1001800010B510BD00F031F81146FFF7F7FF00F091
:1001900079F900F04FF803B4FFF7F2FF03BC00F069
:1001A00057F800000948804709480047FEE7FEE786
:1001B000FEE7FEE7FEE7FEE7FEE7FEE7FEE7FEE717
:1001C00004480549054A064B704700001D04000815
:1001D0002501000860000020600600206002002069
:1001E00060020020704770477047754600F02CF899
:1001F000AE4605006946534620F00700854618B014
:1002000020B5FFF7DDFFBDE820404FF000064FF0BE
:1002100000074FF000084FF0000B21F00701AC463B
:10022000ACE8C009ACE8C009ACE8C009ACE8C0095A
:100230008D46704710B50446AFF300802046BDE8F8
:100240001040FFF7A8BF00000048704700000020E2
:1002500001491820ABBEFEE7260002007047F0B54A
:1002600002460B46002100240025002000BF35E097
:10027000012606FA01F41E6806EA0405A5422CD1FF
:1002800010684F000326BE40B0431E794F00BE40A9
:10029000304310601E79012E02D01E79022E12D139
:1002A00090684F000326BE40B0435E794F00BE40C9
:1002B00030439060908801268E40B0439E798E40F6
:1002C000B6B230439080D0684F000326BE40B043A2
:1002D000DE794F00BE403043D060491C1029C7D39F
:1002E000F0BD4183704701837047000029B1064A81
:1002F00012680243044B1A6004E0034A1268824306
:10030000014B1A60704700001C3802400CB50020F9
:10031000019000903E48006840F480303C490860FD
:1003200000BF3B48006800F4003000900198401C7A
:100330000190009818B90198B0F5A04FF1D1344858
:10034000006800F4003010B10120009001E00020AE
:1003500000900098012859D12E48006840F0040010
:100360002C4908600846006840F002000860084612
:10037000006840F00100086025482430006840F023
:100380008050234924310860C8142349086000BF05
:100390002148406800F010000028F9D11C480830BE
:1003A00000681B4908310860084600680860084674
:1003B000006808600846006820F47D000860084670
:1003C000006840F4110008601148006840F0807037
:1003D0000F49086000BF0E48006800F00070002858
:1003E000F9D00B480830006820F0030008490831B4
:1003F00008600846006840F00300086000BF044839
:100400000830006800F00C000C28F8D10CBD00008A
:1004100000380240003C02400070004010B5154812
:10042000006840F480701349086012480830006882
:10043000114908400F49083108600E4800680F490B
:1004400008400C4908600846006820F480200860D5
:1004500008480830006820F47D000649083108602B
:100460000020091D0860FFF751FF4FF000600449AC
:10047000086010BD003802400CC0FF88FEFFFEEE91
:1004800008ED00E01CB501210220FFF72FFFF0204E
:10049000009001208DF804008DF8050000208DF8F3
:1004A00006008DF8070069460C48FFF7D8FE13E0F8
:1004B000F0210A48FFF717FF002400E0641C0848F9
:1004C0008442FBD3F0210548FFF70BFF002400E036
:1004D000641C03488442FBD3EAE7000000040240A6
:1004E000400D0300F4040008000000206006000036
:0404F000600100089F
:04000005080001A549
:00000001FF
