:020000040800F2
:1000000080060020C1010008C9010008CB010008DA
:10001000CD010008CF010008D10100080000000058
:10002000000000000000000000000000D3010008F4
:10003000D501000800000000D7010008690400088D
:10004000DB010008DB010008DB010008DB01000820
:10005000DB010008DB010008DB010008DB01000810
:10006000DB010008DB010008DB010008DB01000800
:10007000DB010008DB010008DB010008DB010008F0
:10008000DB010008DB010008DB010008DB010008E0
:10009000DB010008DB010008DB010008DB010008D0
:1000A000DB010008DB010008DB010008DB010008C0
:1000B000DB010008DB010008DB010008DB010008B0
:1000C000DB010008DB010008DB010008DB010008A0
:1000D000DB010008DB010008DB010008DB01000890
:1000E000DB010008DB010008DB010008DB01000880
:1000F000DB01000800000000DB010008DB01000854
:100100000000000000000000DB010008DB01000827
:10011000DB010008DB010008DB010008DB0100084F
:10012000DB01000800F002F800F03AF80AA090E8BD
:10013000000C82448344AAF10107DA4501D100F0A2
:100140002FF8AFF2090EBAE80F0013F0010F18BF35
:10015000FB1A43F001031847640400008404000004
:10016000103A24BF78C878C1FAD8520724BF30C8E3
:1001700030C144BF04680C607047000000230024B5
:1001800000250026103A28BF78C1FBD8520728BFA7
:1001900030C148BF0B6070471FB51FBD10B510BD03
:1001A00000F031F81146FFF7F7FF00F0A7F900F073
:1001B0004FF803B4FFF7F2FF03BC00F057F800005C
:1001C0000948804709480047FEE7FEE7FEE7FEE7EB
:1001D000FEE7FEE7FEE7FEE7FEE7FEE70448054927
:1001E000054A064B704700008104000825010008FD
:1001F0008000002080060020800200208002002075
:10020000704770477047754600F02CF8AE46050001
:100210006946534620F00700854618B020B5FFF721
:10022000DDFFBDE820404FF000064FF000074FF023
:1002300000084FF0000B21F00701AC46ACE8C00904
:10024000ACE8C009ACE8C009ACE8C0098D4670470D
:1002500010B50446AFF300802046BDE81040FFF71C
:10026000A8BF000000487047200000200149182066
:10027000ABBEFEE7260002007047F0B502460B4613
:10028000002100240025002000BF35E0012606FAE9
:1002900001F41E6806EA0405A5422CD110684F003F
:1002A0000326BE40B0431E794F00BE40304310606D
:1002B0001E79012E02D01E79022E12D190684F00B5
:1002C0000326BE40B0435E794F00BE40304390608D
:1002D000908801268E40B0439E798E40B6B230435E
:1002E0009080D0684F000326BE40B043DE794F00B7
:1002F000BE403043D060491C1029C7D3F0BD4183B4
:1003000070470183704700001CB50121022000F0F6
:1003100013F8F020009001208DF804008DF80500FE
:1003200000208DF806008DF8070069460148FFF7A8
:10033000A4FF1CBD0004024029B1064A1268024312
:10034000044B1A6004E0034A12688243014B1A60AE
:10035000704700001C3802400CB50020019000904E
:100360003E48006840F480303C49086000BF3B488C
:10037000006800F4003000900198401C0190009843
:1003800018B90198B0F5A04FF1D13448006800F4D5
:10039000003010B10120009001E000200090009892
:1003A000012859D12E48006840F004002C4908600B
:1003B0000846006840F0020008600846006840F007
:1003C0000100086025482430006840F0805023492F
:1003D00024310860C8142349086000BF21484068E0
:1003E00000F010000028F9D11C48083000681B49B3
:1003F0000831086008460068086008460068086020
:100400000846006820F47D0008600846006840F453
:10041000110008601148006840F080700F490860C2
:1004200000BF0E48006800F000700028F9D00B48AB
:100430000830006820F003000849083108600846C9
:10044000006840F00300086000BF044808300068FE
:1004500000F00C000C28F8D10CBD00000038024060
:10046000003C02400070004004480088002804DD81
:1004700002480088401E0149088070471E00002085
:1004800010B51548006840F48070134908601248A0
:1004900008300068114908400F49083108600E48CB
:1004A00000680F4908400C4908600846006820F4BD
:1004B0008020086008480830006820F47D00064964
:1004C000083108600020091D0860FFF745FF4FF064
:1004D00000600449086010BD003802400CC0FF886D
:1004E000FEFFFEEE08ED00E00349088000BF024970
:1004F00009880029FBD170471E000020FFF704FF88
:100500002A4800684FF47A72B0FBF2F1481EB0F14D
:10051000807F00D31BE0481E4FF0E022506150174F
:100520000F22002807DA13071D0E214B00F00F04DD
:10053000241F1D5503E013071C0E1E4B1C5400BF47
:1005400000204FF0E02290610720106100BF2BE0F7
:1005500080211948FFF7D5FE20211748FFF7CFFE6D
:100560000A20FFF7C1FF40211348FFF7CAFE802190
:100570001148FFF7C4FE0A20FFF7B6FF40210E48DE
:10058000FFF7BDFE10210C48FFF7BBFE0A20FFF766
:10059000ABFF10210848FFF7B2FE20210648FFF705
:1005A000B0FE0A20FFF7A0FFD2E700000000002005
:1005B00018ED00E000E400E000040240DC05000863
:1005C000000000202000000060010008FC05000879
:1005D00020000020600600007C0100080048E801BF
:1005E000030406080C101820300000000000000072
:0C05F000000102030406070809000000D7
:04000005080001C12D
:00000001FF
